:020000040000fa
:10000000f0ff0220cd6a0000d74d0000ab5e00007b
:100010006f7200000f790000577d000000000000a3
:10002000000000000000000000000000e18c000063
:100030007365000000000000c1760000418a0000e6
:10004000f33a0000f33a0000f33a0000f33a0000fc
:10005000f33a0000f33a0000f33a0000f33a0000ec
:10006000f33a0000f33a0000f33a0000ed8a000092
:10007000f33a0000f33a0000f33a0000f33a0000cc
:10008000f33a0000f33a0000f33a0000f33a0000bc
:10009000f33a0000f33a0000f33a0000f33a0000ac
:1000a000f33a0000f33a0000f33a0000f33a00009c
:1000b000f33a0000f33a0000f33a0000f33a00008c
:1000c000f33a0000f33a0000f33a0000f33a00007c
:1000d000f33a0000f33a0000f33a0000f33a00006c
:1000e000f33a0000f33a00000000000000000000b6
:1000f00000000000f33a0000f33a0000f33a000079
:10010000f33a0000f33a0000f33a0000f33a00003b
:10011000f33a0000f33a00000d4100000d410000e9
:100120000d4100000d410000f33a0000f33a0000d9
:10013000f33a0000f33a00004d6700004d670000fd
:100140004d6700004d670000f33a0000f33a0000ed
:10015000f33a0000f33a0000f33a0000f33a0000eb
:10016000f33a0000f33a0000f33a0000f33a0000db
:10017000f33a0000f33a0000f33a0000f33a0000cb
:10018000f33a0000f33a0000f33a0000f33a0000bb
:1001900000000000f33a0000f33a0000f33a0000d8
:1001a000f33a0000f33a0000f33a0000f33a00009b
:1001b000f33a0000f33a0000f33a0000f33a00008b
:1001c000f33a0000f33a0000f33a0000f33a00007b
:1001d000f33a0000f33a0000f33a0000f33a00006b
:1001e000f33a0000f33a0000f33a0000f33a00005b
:1001f000f33a0000f33a0000f33a0000f33a00004b
:10020000f33a0000f33a0000f33a0000f33a00003a
:10021000f33a0000f33a0000f33a0000f33a00002a
:10022000f33a0000f33a0000f33a0000f33a00001a
:10023000f33a0000f33a0000f33a0000f33a00000a
:10024000f33a0000f33a0000f33a0000f33a0000fa
:10025000f33a0000f33a0000f33a0000f33a0000ea
:020000040000fa
:10026000f8b500bff8bc08bc9e4670471d8300006f
:10027000f8b500bff8bc08bc9e467047f982000084
:020000040000fa
:0802800044240000010000000d
:020000040000fa
:100288002de9f04f97b0119089469046019311a837
:1002980007f096fb0028c0f2a183bb4b53f820302f
:1002a8000bb100221a70b94b13f8105003eb40033e
:1002b80093f801a0b64bb9f1000f08bf994628463c
:1002c80009f062f810f0010f40f08a8310f0040f73
:1002d80040f08b83d9f804301593002b60d0159a21
:1002e800531eb3f5004f65d30123159399f8017098
:1002f8007b1edbb2022b28bf0127d9f80860731eca
:10030800b3f5004f59d206f00f03002b18bf4ff476
:100318000076d9f80c40b4f1807f51d8631e234091
:10032800002b18bf0024019bb3f5007fc0f05f834a
:10033800b8f1000f00f05d8399f8003002930023b4
:100348001493baf1000f3dd00123002241462846fc
:1003580008f01afb002840f04e8398f8ff2198f81f
:10036800fe3143ea02231bb28a4a934240f0458396
:1003780008eb0a1909f5d779baf1040f00f23f839f
:1003880099f80430002b00f03c8309f1080008f0cc
:10039800e6fe039009f10c0008f0e1fe149027e056
:1003a80015aa0321284608f012f9002897d001233e
:1003b80015939be71a4297d198e74ff40076a8e780
:1003c8000024b0e714aa0121284608f000f9002803
:1003d80040f01983029b13f0080f07d1149b3f2ba1
:1003e8005cd93f3b14933f23039301e0002303931d
:1003f800ddf850c0bcf17f0f40f20783b4f5813fb0
:1004080034bf630a8023029a12f002010b9148d08c
:1004180002f00102002a0cbf032202220992bb4605
:100428004fea1c3ec6f3161207920398411c0d9121
:100438000a440692159a511e0491524205924feab7
:100448005c420e9200f120020c920f970a961095ca
:10045800099d032d00f0ef82002b42d01c46bcfb07
:10046800f4f240f6f5718a4250d90232520002f293
:10047800ff12510a069a01fb0b27049a3a44059881
:100488000240d21bb2fbfbf00bfb1020002844d02b
:10049800013a039802300890022041e000230393b8
:1004a800a6e7029a12f0010f00f0b1820222099227
:1004b800b5e72346cde7384a944510d9374a911c09
:1004c800022422460a9e0e98824206d8640031f819
:1004d800022f002af8d10a96b1e20a96afe2012467
:1004e800ade2bcf5805f0fd32d4a911c0224042293
:1004f8000a9e724506d8640031f8022f002af8d106
:100508000a96ace70a96aae70124a8e702eb42029a
:100518000132520803320125a9e70d9808900120fd
:10052800b2fbfbf20a440799039ebf1b07eb0417b3
:10053800bc45c0f0708200eb0109aceb09090bfb6c
:100548001299b9fbf4f9032d13d0022d3cd14ff6c3
:10055800f577b9452ad9002b40f06b826400402c0e
:10056800a7d90b9a002a40f06682802c1cd8234613
:100578006fe74ff6f577b94526d8002b40f04d8246
:10058800012c0fd9630864e78cb3002040b6002023
:100598008093000055aaffffffff01007093000041
:1005a800609300000e231ce20e231ae240f6f57653
:1005b800b14500f2fc80002b40f031826300802bb3
:1005c8007ff647af0e230ce20f9f0a9e0691059017
:1005d80004922b460995109d012b40f00c8140f6a2
:1005e800f573994500f21d824ff4007200214046d0
:1005f80008f026ff0b22d749404608f01bfe0023cf
:1006080088f80b30022388f80c3088f80d40059bd9
:1006180088f80e30c3f3072388f80f3088f8107075
:1006280088f81160c6f3072688f812601499b1f5a6
:10063800803f80f0018188f81310c1f3072188f802
:100648001410019b5b0a0593f82388f815303f23a3
:1006580088f81830002388f81930ff2288f81a2003
:1006680088f81b30039908f11c0008f065fe099b07
:10067800032b00f0e68008f0d3fa014608f12700c2
:1006880008f05afe049b88f81630c3f3072388f84d
:100698001730802388f82430292388f8263013223d
:1006a800ad4908f12b0008f0c5fd552388f8fe3147
:1006b800aa2388f8ff310123039a4146284608f007
:1006c800d5f8002840f0af81019b23f4ff7222f097
:1006d80001020021404608f0b3febbf1000f00f014
:1006e800cb81099b012b9d4b18bf6ff0070301932a
:1006f8004ff0000908f1040307930a94089ecdf807
:100708000cb02f46cdf82ca0ddf814b0099b032bb4
:1007180000f00f810199404608f00efe049d4ff449
:10072800007a2c465d4528bf5c4623463246414642
:10073800384608f09bf8002840f07781524600219f
:10074800404608f07dfe26442d1bead109f1010937
:10075800039b4b45dad80a9c08963d46ddf82ca049
:10076800069b099a032a08bf23461e46089fddf800
:10077800149034464e4528bf4c4623463a464146d7
:10078800284608f073f8002840f051812744361baa
:10079800efd1099a032a00f0e980149bb3f5803f52
:1007a80080f0f580022a0cbf04240124dfe00f9fab
:1007b8000a9e0691059004920995109d4ff40072c7
:1007c8000021404608f03cfe0b226249404608f0f2
:1007d80031fd002388f80b30022388f80c3088f8a4
:1007e8000d40059b88f80e30c3f3072388f80f30b7
:1007f80088f8107014e74ff400720021404608f0a2
:100808001ffe0b225349404608f014fd002388f8c8
:100818000b30022388f80c3088f80d40059b88f8c7
:100828000e30c3f3072388f80f3088f81070099b3f
:10083800032b08bf0026f3e608f1200008f07cfd32
:10084800ffe608f0edf9014608f1430008f074fdf1
:10085800049908f1240008f06ffd022108f12c002a
:1008680008f06afd012688f83060002388f83130e6
:10087800062288f8322088f83330802388f8403000
:10088800292388f842301322354908f1470008f037
:10089800d1fc552388f8fe31aa2388f8ff31334666
:1008a800039a4146284607f0e1ff08b1012398e082
:1008b8000123039eb21d4146284607f0d7ff4ff497
:1008c80000720021404608f0bbfd2649404608f06a
:1008d80033fd254908f5f27008f02efd09f1ff31c6
:1008e80008f5f47008f028fd022108f5f67008f004
:1008f80023fd552388f8fe31aa2388f8ff31012308
:10090800f21d4146284607f0b1ff01230d9a4146e2
:10091800284607f0abff019b23f4ff7222f0010287
:100928000021404608f08cfdbbf1000f7ff4d9aee2
:1009380016e76ff00701404608f0fefc4ff0ff3164
:10094800079808f0f9fc6ff0704108f1080008f00a
:10095800f3fce3e6247e0000447e0000f8ffff007d
:10096800307e000052526141727241610c24baf12a
:10097800000f0ed1029b13f0080f21d00022114660
:10098800284607f024fe031c18bf012329e006248b
:10099800ede7012300224146284607f0f5ff08b19c
:1009a80001231ee008eb0a1a8af8b241012300224b
:1009b8004146284607f05aff0028dfd0012310e0ff
:1009c800149b1293002313934346224612a92846e8
:1009d80003f052f903460028d0d002e00b2300e0d0
:1009e8000323184617b0bde8f08f0a23f9e711234f
:1009f800f7e71123f5e70123f3e70e23f1e70e23c9
:100a0800efe70e23ede70123ebe70e23e9e71323d6
:100a1800e7e70e23e5e70e23e3e70e23e1e70e23de
:100a2800dfe70e23dde70123dbe70123d9e7012315
:100a3800d7e70b9af2b1002b3ff43dad1c46bcfb47
:100a4800f4f18a0002f20722520aa1f57f41f63931
:100a58000c488142ddd80c9d02fb0b57049979188c
:100a680005980140c91b01f120006918089100216f
:100a7800032559e50e23b4e7069e089fddf8149078
:080a880077e600bffffffe0f3f
:020000040000fa
:100a90002de9f8430446c0ebc0056d01a74e2e4476
:100aa0004ff6ff71304608f002fa012839d1a44b05
:100ab0005f1997f83d30032b30d8dfe803f00214bc
:100ac00027adc4ebc4059e4b03eb45150321b5f8d8
:100ad000540004f031fea865b0f1ff3f1ed00123a1
:100ae00085f83d301ae0c4ebc403954a02eb43138a
:100af000596e384608f0acf880b1c4ebc404904b92
:100b000003eb4414022384f83d3007e0c4ebc40334
:100b10008b4a02eb431393f84c3023b9304608f06c
:100b20008bfabde8f883c4ebc40302eb4313002245
:100b300083f84c20012183f83d10384608f0b2fcc0
:100b40000028eed0c4ebc4037d4a02eb431393f8b4
:100b50003e30032b2bd0042b40d003b30020c4eb3a
:100b6000c405774b03eb451585f870000021384626
:100b700008f098fc95f8703095f871209a42cdd025
:100b800085f87130012b43d06d4be200111b03eb54
:100b90004111002081f8730081f83e00bee7c4ebec
:100ba000c402674b03eb4213032283f83e20002369
:100bb000c4ebc402624901eb4212ff21d15401335c
:100bc0000a2bfbd10a223946384607f03bfd08b90b
:100bd0000020c4e7384608f0a6f9c0e70022042147
:100be000384603f04bfb08b90020b8e71422394619
:100bf000384608f052fc48b113223946514828447f
:100c000008f0e6f9b0fa80f04009a8e70020a6e76e
:100c1000032285f83d2081e70121384608f042fc97
:100c200000283ff47eafc4ebc403454a02eb4313f4
:100c300093f83f300b2b00f24482dfe813f00c00f6
:100c40001700320047009500cf0016012501a201d0
:100c500007021e023902c4ebc402394b03eb4213f4
:100c6000002283f87420012283f83f200023c4eb84
:100c7000c402334901eb4212ff21d15401330a2b44
:100c8000fbd10a223946384607f0dcfc002800f088
:100c90000881c4ebc4022a4b03eb4213022283f8ff
:100ca0003f20384608f03ff940b9c4ebc402244b5a
:100cb00003eb4213012283f83f20f2e0c4ebc402ad
:100cc0001f4b03eb4213032283f83f204ff4d572ee
:100cd0000221384603f0d2faa8b197f89d3013f0fc
:100ce000040f31d1c4ebc402154b03eb421393f84c
:100cf0009e30aa2b10d0c4ebc402114b03eb42135d
:100d0000002283f85020c4ebc4020d4b03eb4213c6
:100d10000c2283f83f20c4e0094ae02303fb0423ac
:100d200093f89f3003f00f03012be4d1e02303fb82
:100d30000423012283f850200ee000bfe4b100201c
:100d400010b1002099b10020c4ebc402d74b03ebd3
:100d50004213002283f85020c4ebc402d34b03ebb0
:100d60004213042283f83f204ff47a71384607f08b
:100d700093ff002858d04ff00009c4ebc403cb4abe
:100d800002eb43184a460f21384603f077fa002851
:100d900047d098f8502092071221384603f06efa97
:100da00000284ad097f89d3013f0010f03d098f82f
:100db0004d30002be6d0384608f0bff9c4ebc40232
:100dc000ba4b03eb421393f84d306bbbc4ebc40238
:100dd000b64b03eb4213052283f83f20002210217b
:100de000384603f04bfa98b1c4ebc403af4a02eba8
:100df000431292f8a11092f8a0301b0443ea016359
:100e000092f89e100b4392f89f2053ea022318d4c5
:100e1000c4ebc402a54b03eb42130c2283f83f2022
:100e20003fe0384608f089f9c4ebc4029f4b03eb5e
:100e300042130c2283f83f2033e0384608f07df956
:100e4000f2e713f0804f994a4ff0e00303fb0423cd
:100e500014bf0122002283f87420c4ebc402934b18
:100e600003eb4213062283f83f20c4ebc4088f4be8
:100e700003eb481898f95c20d8f86010384607f062
:100e8000adfe072388f83f300121384608f00afb01
:100e900048bbc4ebc402854b03eb42130c2283f81e
:100ea0003f200021384608f0fdfac4ebc4037f4a16
:100eb00002eb431393f83f300b2b00f00b810c2b0c
:100ec0007ff42cae794ae1000b1b02eb43130020a8
:100ed00083f8700083f8710083f83e001a460123fe
:100ee00082f83d301ae600220321384603f0c6f9a5
:100ef00020b90021384608f0d5facae7142239464d
:100f0000384608f0cafa0028f3d0dff8a09105f1be
:100f1000750809eb080cbe46bee80f0049f808004a
:100f2000ccf80410ccf80820ccf80c30def8000027
:100f3000ccf8100019f80830fe2b08bf0cf1010c9a
:100f40009cf8003013f0c00f29d09cf80720120441
:100f500002f47c129cf8083042ea03229cf8093023
:100f60001a4301329202c4ebc408504b03eb4818f9
:100f7000c8f86c200021384608f094fa082388f855
:100f80003f300121384608f08dfa68bbc4ebc4023b
:100f9000464b03eb42130c2283f83f2081e79cf879
:100fa000061001f003019cf8073043ea01219cf888
:100fb0000920520002f006029cf808309b0943ea1f
:100fc000810301339cf80a1042ead11202329340a5
:100fd0009cf8052002f00f02a2f1090101228a40cb
:100fe00092b202fb03f2bee700220421384603f06e
:100ff00045f920b90021384608f054fac6e7142212
:101000003946384608f049fa0028f3d0dff89c80ca
:1010100005f1890908eb090ebc46bce80f0048f849
:101020000900cef80410cef80820cef80c30dcf819
:101030000000cef810000021384608f033fac4eb67
:10104000c40308eb4318092388f83f30002211211c
:10105000384603f013f940b9c4ebc402134b03eb59
:1010600042130c2283f83f201be7c4ebc4020f4b52
:1010700003eb42130a2283f83f204ff4007207214a
:10108000384603f0fbf840b9c4ebc402074b03eb4e
:1010900042130c2283f83f2003e7c4ebc402034b46
:1010a00003eb42130b2283f83f20fae610b1002035
:1010b000c4ebc4021d4b03eb4213002283f83f2014
:1010c000efe6c4ebc402194b03eb4213002283f892
:1010d0003f20e6e6e000031b02eb4313002183f808
:1010e0007210d96e4ff40077c3f8b870c3f8bc1013
:1010f000c3f8c070c3f8c410c3f8c870c3f8cc10ec
:10110000182183f8a4100121c3f8a810c3f8ac106b
:10111000c3f8b010b8351544c3f8b45083f8731051
:10112000042583f83e5083f83d10f7e410b1002009
:020000040000fa
:1011300068b400201c0000000000000010b1002076
:10114000e00000000000000044b300204800000060
:10115000000000003fb60020010000000000000079
:10116000c8b500200c00000000000000d4b500202d
:101170000c0000000000000091b5002001000000fc
:1011800000000000c8b300202c0000000000000098
:1011900044b6002001000000000000008cb30020d5
:1011a000040000000000000044b500201000000012
:1011b00000000000b6b500200200000000000000a2
:1011c00000a900200002000000000000c0b50020bf
:1011d000080000000000000054b5002010000000ce
:1011e0000000000000af002010010000000000001f
:1011f000b8b400201400000000000000b8b50020c2
:101200000800000000000000e0b50020040000001d
:101210000000000040b600200200000000000000b6
:1012200000ab0020000200000000000000ad002024
:101230000002000000000000f4b3002028000000bd
:101240000000000084b400201c000000000000002a
:10125000a0b400201800000001000000f4b300203a
:1012600084b40020a0b500200000000000ad0020e4
:1012700000000000ccb400201400000001000000b9
:10128000188e00001c8e0000208e0000288e0000aa
:101290002c8e000090b300203800000000000000f9
:1012a00050a20020400200000000000000a000202a
:1012b000500200000000000045b6002001000000c0
:1012c000000000001cb40020280000000000000006
:1012d000f0b10020a00000000000000092b5002046
:1012e00002000000010000000100000064b50020c1
:1012f000100000000000000044b4002024000000a2
:101300000000000094b500200c0000000000000068
:10131000a0b500200c00000000000000e4b5002093
:101320000400000000000000e8b5002004000000f8
:1013300001000000aaaaaaaaecb50020040000003f
:10134000000000000000002000a0000000000000dd
:10135000f0b500200400000000000000f4b50020fb
:101360000400000000000000f8b5002004000000a8
:1013700000000000fcb50020040000000000000098
:1013800090b20020640000000000000000b60020c1
:10139000040000000000000004b60020040000006b
:1013a0000000000008b6002004000000000000005b
:1013b0000cb60020040000000000000010b6002061
:1013c0000400000000000000e0b400201400000051
:1013d00000000000f4b40020140000000000000031
:1013e00014b60020040000000000000018b6002021
:1013f00004000000000000001cb6002004000000f3
:101400000000000020b600200400000000000000e2
:1014100008b50020140000000000000024b60020e1
:1014200004000000000000001cb5002014000000b3
:101430000000000030b50020140000000000000093
:1014400028b6002004000000000000002cb6002098
:10145000040000000000000090a4002040020000f2
:1014600000000000d0a600203002000000000000b4
:1014700030b60020040000000000000046b6002046
:10148000010000000000000010b00020000100007a
:101490000000000042b60020020000000000000032
:1014a000acb500200a0000000100000053442046b3
:1014b00041494c0d0a00000074b5002010000000e6
:1014c000010000005344204d4f554e5420464149e1
:1014d0004c0d0a0084b500200d0000000100000042
:1014e000534420535543434553530d0a0000000015
:1014f0003cb6002003000000010000000d0a0000bf
:1015000034b600200400000000000000f4b2002007
:10151000500000000000000038b600200400000069
:101520000000000000000000000000002222222233
:020000040000fa
:101530002de9f04f83b09d4b1e68197d21b933789a
:101540004bbb03b0bde8f08f3378002b40f0e28155
:1015500030460022531cdbb29942f2d010f8284fdb
:101560000cb91a46f6e70232d2b2012a00f0d38152
:101570008e490a75ff2be4d003eb8303dc00351999
:101580006b79012b09d02b7b042bdad8dfe803f031
:101590000a1d2e4f7f000b46eee72b7b042b10d04d
:1015a00000232b7395f82030012b00f08781002356
:1015b000335585f820306b71ab70eb706b702b710d
:1015c000bfe77a4b00225a75eae7ab685b6a0321f2
:1015d000e88898476861b0f1ff3fb2d0ab681b69fb
:1015e0002a467349984702232b73aae7ab681b6806
:1015f0006869984768b195f8203033b9ab685b6883
:1016000068699847686203232b73012385f82030ab
:1016100097e795f82030012b03d0002385f8203080
:101620008fe7284607f02cfd00232b71f5e75f4b71
:101630005b7d012b85d05d4b01225a756b6a1b695e
:101640001b68b3f5007f3abf4ff40076b6fbf3f6a4
:101650000126564c4ff400720021206907f0b8feb5
:10166000022385f821306869ab6800969e680023e4
:10167000226905f11c01b047eb69b3f1ff3f02d0cd
:1016800004232b735de7494b00225a7559e795f9fe
:101690002130022b06d06bb1444b00225a75032334
:1016a0002b734ee7ab68db6a002b3ff44aaf286927
:1016b000984746e73d4b1c6900236b7094f8fe3158
:1016c000552b6cd04ff0000847464ff0ff09374bc1
:1016d0005c682378002b5cd1344bd3f810a02b79b5
:1016e00001332b712a7e334b53f822b0584607f052
:1016f00077fec6b232465946a01c07f076fdaa789e
:10170000a3199a70731c54fa83f32a7930329a70b1
:10171000b31c54fa83f300229a70a56184f80190f7
:1017200067b317f0010f00f0b3801746b9f1ff0f50
:1017300024d0214b33f817301af8032062709a44f2
:101740009af80b209af80a301b0403eb02639af80c
:10175000092003eb02239af80820134463619af8e6
:1017600007209af806301b0403eb02639af8052061
:1017700003eb02239af8042013442361b8f1000f0d
:1017800000f096800d4bea781a7001375f700123e4
:101790002370064b00225a7502232b73d1e694f86e
:1017a000ff31aa2b0cd04ff000088de7a0b4002029
:1017b000a5880000ccb400201095000040b60020a1
:1017c0002378eb2b2bd094f8c20107f0bffa002846
:1017d0004cd16b7800276b7094f8d20107f0b6fa01
:1017e00020b147f002076b7801336b7094f8e20187
:1017f00007f0acfa002840d047f004076b780133bb
:101800006b7094f8f20107f0a1fa90b347f0080763
:101810006b7801336b704ff00108c14657e763786e
:101820003c2b03d0582b01d0fe2bccd1a378902b8e
:10183000c9d101236b7094f85230462b42d094f8f2
:101840005330412b44d094f85430542b46d094f864
:101850003630462b48d094f83730412b4ad094f894
:101860003830542b4cd04ff000082de701231f4691
:10187000b1e74ff00108c14629e794f8f20107f0fb
:1018800065fa0028c2d1002f40d14ff001081be7b4
:1018900017f0020f01d0012748e717f0040f01d01d
:1018a000022743e707f00807002f18bf03273de78b
:1018b0001b4bea781a7000225a7068e7284607f036
:1018c000dffb74e64ff0000847464ff00b09fee6d9
:1018d0004ff0000847464ff00b09f8e64ff00008bc
:1018e00047464ff00b09f2e64ff0000847464ff02d
:1018f0000609ece64ff0000847464ff00609e6e619
:101900004ff0000847464ff00609e0e64ff00108a7
:10191000c146dce60023034a002111752ce600bf16
:0819200040b60020a0b4002035
:020000040000fa
:101928002de9f04f87b081468846036803930b780a
:101938002f2b05d05c2b03d0039b9b6983600ae0a7
:101948004346984613f8012b2f2afad05c2af8d080
:101958000023c9f8083098f800301f2b02d9dff8a7
:1019680068a333e1802389f82f300021484604f02a
:10197800abfb03468ce183b21f2b3cd92f2b29d01c
:101988005c2b27d07f2b14d9fe2c00f2c48025f8bd
:101998001430013405a807f0b9f8b0f1ff3f00f0a2
:1019a800ba80b0f5803fe6d3030c25f81430013433
:1019b800e1e71846222b00f0ae802a220af10d0139
:1019c800824200f0a88011f8012f002af8d1dbe745
:1019d80001330593059b1a782f2af9d05c2af7d092
:1019e8000027ddf81480012c07d0022c1bd00cb383
:1019f80005eb440222e00427f3e72b882e2bf7d1ce
:101a0800002325f8143009f123029c428cbf2e21b3
:101a1800202102f8011f01330b2bf6d147f02007d4
:101a280089f82f70b6e06b882e2be1d12b882e2bee
:101a3800ded1e5e7ab466be0013c68d032f8023d09
:101a4800202bf9d02e2bf7d06100002325f8143075
:101a5800002c60d02b88202b5fd12a460026013627
:101a680032f8023f202bfad0002e57d047f0030758
:101a7800ffb28a1eab18aa5a2e2a05d0013c03d001
:101a880033f8022d2e2af9d10b22202109f1240046
:101a980007f0d6fc0823009300230193029306f174
:101aa800010b35f8160000284dd020283bd02e28f1
:101ab80037d0019b009a93423ad2a34500f0f480b4
:101ac8007f2800f297802b2808bf3e4600f0a180af
:101ad8002c230af119029bb2834200f0be8012f84f
:101ae800013f002bf7d1a0f141039bb2192b40f223
:101af800b680a0f161039bb2192b00f2b680029b5d
:101b080043f001030293203880b2019b86e0ab4684
:101b18000023abf800300623bae000262e2ba8d10c
:101b2800a4e7a345c5d047f00307ffb25e46b6e772
:101b3800009b0b2b51d0a34500f0b98047f0030759
:101b4800ffb240f2b48099f82430e52b4ed0009bc8
:101b5800082b00f08c80029a02f00c030c2b03d0a7
:101b680002f00303032b02d147f00207ffb217f07c
:101b7800020f0dd1029b13f0010f1cbf47f0100795
:101b8800ffb2029b13f0040f1cbf47f00807ffb217
:101b980089f82f70484601f063fb99f82f20034617
:101ba800002869d112f0040f72d199f8063013f0a9
:101bb800100f77d0039800f14001d9f81430c3f31f
:101bc8000803194407f0f0f8c9f80800cdf81480a4
:101bd800d9f80030dd680024dce647f00307ffb2df
:101be80099f82430e52bb6d10b230093052389f807
:101bf8002430ace747f00206f6b240f2b51106f021
:101c080083fa10f0800f10d000f07f002d4b185c85
:101c180008bb46f00307ffb2019b5f205a1c0192e4
:101c28004b4483f824005e4639e7ff28f0d9009b2f
:101c3800013b019a9a4207d2019a531c4a44010a6d
:101c480082f824103746e9e747f00307ffb25e46fb
:101c5800009b019323e7374635e73e46d9e7029bc9
:101c680043f002030293019bd8e7019bd6e7029b4e
:101c78009b00dbb202936ee7042b09d112f0200f10
:101c88000ad012f0040fa1d0802389f82f30002346
:101c9800184607b0bde8f08f02f00402002a08bf1a
:101ca8000523f5e70523f3e7009b0b2b95d0029b53
:101cb8009b00dbb2029326460b2300930823019373
:0c1cc800ede600bf846e0000047e00000a
:020000040000fa
:101cd4002de9f04f85b00e46154600230b6005f044
:101ce40071fe071ec0f21b81a34b53f82740002c42
:101cf40000f01a81346005f0fe05237873b1607832
:101d040007f055fc10f0010f08d1002d00f00881f8
:101d140000f00405002d18bf0a2501e100232370fb
:101d2400964b13f81700607007f030fb10f00106b3
:101d340040f0fc801db110f0040f40f0f9808f4b8f
:101d440003eb47077f780021204603f07bfc022841
:101d540001d02dd897b3042f00f20c8104f206258c
:101d640004f24629e846284607f0fbf948f8040b34
:101d740010354d45f7d13fb17d1e0deb85050df1b5
:101d840010084ff003090be03d46f6e7204603f048
:101d940059fc6fb9012801d810e04846a84507d07e
:101da40055f8041b0029f1d1002ff6d00d25b7e01a
:101db400042800f0bf80012800f2be8094f84c2073
:101dc40094f84b3043ea02231bb2b3f5007f40f092
:101dd400b58094f8575094f8563053ea052504d149
:101de40004f1640007f0bdf90546d4f83490256287
:101df40094f85070a7707b1edbb2012b00f2a08018
:101e040094f84d801ffa88f36381002b00f09a80c8
:101e140008f1ff3313ea080f40f0968094f852302b
:101e240094f851a04aea032a0ffa8afa1ffa8afba5
:101e3400a4f808b01bf00f0f40f0888094f85430d9
:101e440094f8530050ea032003d104f1600007f032
:101e540088f994f84f2094f84e3053ea022277d050
:101e640005fb07fc02eb1b136344984272d3c01ab0
:101e7400b0fbf8f140456fd34148814200f28880bd
:101e84004ff6f570814288bf4ff0030800f282805c
:101e940040f6f570814288bf4ff002087dd88f1c50
:101ea400e761c4f824904a44a2624b442363bbf123
:101eb400000f5bd06244e2624ff0010807eb470277
:101ec40007f0010303eb520303f2ff13b5eb532fa7
:101ed4004ad34ff0ff33636123618023237184f875
:101ee4000080284a138801339bb21380e380264b79
:101ef400e3600023a361254b1b689c420bd035464d
:101f04000ee0bbf1000f2dd06244e262b8f1020f83
:101f1400d4d17b00d8e71d4b00221a60efe70b25d4
:101f2400284605b0bde8f08f0c25f9e70325f7e74f
:101f34000a25f5e70125f3e70d25f1e70d25efe780
:101f44000d25ede70d25ebe70d25e9e70d25e7e781
:101f54000d25e5e70d25e3e70d25e1e70d25dfe791
:101f64000d25dde70d25dbe70d25d9e70d25d7e7a1
:101f74000d25d5e70d25d3e78cb3002040b600200e
:101f8400f5ffff0fb6b5002000a9002044b50020de
:101f94004ff00008b8f1000fead08f1ce761c4f8d5
:101fa40024904a44a2624b442363b8f1030fa8d19e
:101fb40094f86b2094f86a3043ea02231ffa8afaf1
:101fc4005aea0303cad104f16c0007f0caf8e062cc
:101fd400bb0003f2ff13b5eb532fc1d34ff0ff3314
:101fe400636123618023237194f8712094f8703025
:101ff40043ea02231bb2012b7ff471af09f1010103
:10200400204606f051fa00287ff469af00232371bb
:1020140094f83f2294f83e3243ea02231bb20f4a5b
:1020240093427ff45caf04f1400007f09af80c4b44
:1020340098427ff454af04f5097007f092f8094b05
:1020440098427ff44caf04f50a7007f08af8606197
:1020540004f50b7007f085f8206140e755aaffffef
:082064005252614172724161a8
:020000040000fa
:10206c002de9f04f85b00e469146984605f0deffff
:10207c00054616b14ff0ff333360002d00f0798127
:10208c002c780194c4ebc402be4b03eb421393f8bf
:10209c007330002b00f06f81b8f1000f00f07081ed
:1020ac000f9b002b00f07281b9f1000f66d10e9ad4
:1020bc009918c4ebc403b34a02eb4313d3f8bc30f6
:1020cc00994200f26581c4ebc40b4fea4b1bad4b3c
:1020dc0003eb0b0a0121504607f0def907460028f6
:1020ec0000f04a81a84b5b4402934ff6ff711846ef
:1020fc0006f0d7fe012858d1e6b1c4ebc403a14abf
:10210c0002eb4313022283f83020998e2a781202b4
:10211c0042ea01429a6332609b8e01339bb24ff6c6
:10212c00ff72934208bf0123c4ebc402954901eb33
:10213c0042129386b9f1000f40f08a800f9b022b5c
:10214c0034bf4ff008094ff00909c4ebc4038d4aa2
:10215c0002eb431393f8743013b90e9b5b020e938e
:10216c000e9a4946504602f083f800283bd09af864
:10217c009db0bbf1000f36d100272de00f9b0e9abe
:10218c009918c4ebc4037f4a02eb4313d3f8c43051
:10219c00994200f2ff80c4ebc40302eb431393f8a3
:1021ac007230002b8fd00027e6e00021504607f05c
:1021bc0073f90027e0e04146504607f021f990b151
:1021cc0002225146504607f062f960b108f50078da
:1021dc0001370f9bbb4220d0fa22fe21504604f05f
:1021ec00ddfb0028e7d14ff0010b00273eb1c4eb1b
:1021fc00c404644b03eb4414002384f830306b6844
:10220c001bb1aa68314658469847029806f00eff53
:10221c000021504607f040f9aee0b9f1090f0fd09c
:10222c00c4ebc4035b01574aff21d1540122514630
:10223c00504607f027f9071e08bf4ff0010bd5e7f2
:10224c0000220521504602f013f80028e8d1cae715
:10225c000f9b022b34bf0a230b230393c4ebc40341
:10226c00484a02eb431393f8743013b90e9b5b028c
:10227c000e930e9a0399504601f0faff002847d0ae
:10228c009af89db0bbf1000f42d10027019bc3eb24
:10229c00c3023c4b03eb4219cdf804b0ddf80cb093
:1022ac0027e04146504605f0fff988b3ff2389f833
:1022bc00003089f8013002225146504607f0e2f80e
:1022cc0030b301225146504607f0e1f800b399f8bb
:1022dc00003003f01f03052b1ad1fa22ff215046c0
:1022ec0004f05cfba0b108f5007801370f9bbb42f2
:1022fc0012d0bbf10a0f0cbffe236ff0030389f859
:10230c00003001225146504607f0bcf80028c8d1d5
:10231c004ff0010b002769e7ddf804b0039b0b2b92
:10232c0010d0c4ebc4035b01164aff21d154012227
:10233c005146504607f0a6f80746002f08bf4ff04d
:10234c00010b53e70f4ac4ebc4035b01d118fd200a
:10235c00d054ff234b7002225146504607f092f89e
:10236c000028d5d0fa22ff21504604f017fb07466f
:10237c00e3e7002700e00027384605b0bde8f08f02
:10238c000027f9e710b10020e4b100200027f3e7a3
:08239c000027f1e70027efe73d
:020000040000fa
:1023a4002de9f04f9db004460d4617464c220021fe
:1023b40009a807f047f80994e4e0013509a805f0f5
:1023c400f9ffdfe0a97803354ff0010aebe0a978c3
:1023d40003354ff0020ae6e0a1f13003dbb2092b2a
:1023e40088bf002600f2e680002606eb860601eb95
:1023f4004606303e15f8011ba1f13003dbb2092b70
:10240400f3d9d7e057f8044b2178002900f0248150
:102414002346c4f1010000eb030813f8012f002a3e
:10242400f9d11af0020f00f0328109a805f0c2ffb9
:1024340014f8011f0029f8d108f10104464540f2bf
:10244400a1804ff0200810e09946594609a805f0ec
:10245400b1ff09f101034e45f6d1aaeb0808b044d7
:1024640021780029e1d1e7e71c46414609a805f097
:10247400a1ff631ca642f7d184e057f8041bc9b23c
:1024840009a805f097ff7de009a805f093ff79e01e
:102494001af0040f07d00a2057f8042b442b08d055
:1024a4000ce01020f8e70a20442b40f0d28057f8c3
:1024b400042b002abcbf52424af0080a78290cbff8
:1024c4004ff0270b4ff0070b0df10408c4464ff0f3
:1024d400000e814600e0a646b2fbf0f100fb11239a
:1024e400dbb2092b84bf5b44dbb20ef10104303351
:1024f4000cf8013b914504d80a46202cebd14ff04f
:102504001f0e1af0080f06d01cab1c442d2304f830
:102514006c3c0ef102040af00103002b14bf4ff0cf
:1025240030094ff020091af0020f04d0a2461cab68
:102534001c446d3c11e004f1010ab44201d3f6e7f6
:102544009a46494609a805f035ff0af101035645a4
:10255400f6d106f1010aeae75c46a3461bf8011925
:1025640009a805f027ffa045f6d10af10104564554
:1025740001d807e01c46494609a805f01bff631c67
:10258400a642f7d12978002900f0938025297ff409
:1025940014af697830293ff415af2d293ff417aff4
:1025a40002354ff0000a2a297ff416af57f8046b5e
:1025b40015f8011b01f0df034c2b04bf4af0040a99
:1025c40015f8011b002974d0a1f16103dbb2192baa
:1025d4009abfa1f12003dbb20b46a3f14202162af3
:1025e4003ff652af01a050f822f000bf7126000060
:1025f4007f240000952400008d2400008d24000019
:102604008d2400008d2400008d2400008d24000002
:102614008d2400008d2400008d2400008d240000f2
:10262400832600008d2400008d2400008d240000ea
:10263400092400008d240000952400008d2400004e
:102644008d2400004d2600001af0040f7ff429affa
:10265400102057f8042b31e71af0020f1fd04ff067
:102664000008e9e657f8042b022027e71af0040fc4
:10267400f8d1022018e757f8042b08201ee71af0b7
:10268400040ff8d10820e4e72178d046cde608f11c
:10269400010a4645f8d9d1464ff0200bd5e64ff054
:1026a4000108002e3ff4c8ae4ff000084ff0010ab5
:1026b400f1e709a805f070ff1db0bde8f08f00bf79
:020000040000fa
:1026c4002de9f047089e04468846002b40f085809b
:1026d4008a42154648d9b2fa82f24ab1c2f12007b9
:1026e40001fa02f320fa07f7954047ea03089440f9
:1026f4004fea154e230cb8fbfef71ffa85fc0efbc0
:10270400178843ea084307fb0cf1994209d9eb18ef
:1027140007f1ff3080f0e380994240f2e080023f0d
:102724002b445b1aa4b2b3fbfef00efb103344ea55
:10273400034400fb0cfca44509d92c1900f1ff3318
:1027440080f0cb80a44540f2c88002382c4440ea93
:102754000740a4eb0c0400271eb1d4400023c6e9b3
:1027640000433946bde8f087002a53d0b2fa82f21a
:10277400002a40f0b680491b4fea154e1ffa85f82f
:102784000127b1fbfefc230c0efb1c1143ea0143a1
:1027940008fb0cf1994207d9eb180cf1ff3002d277
:1027a400994200f2ec808446591aa3b2b1fbfef0c0
:1027b4000efb101443ea044408fb00f8a04507d9b3
:1027c4002c1900f1ff3302d2a04500f2dc80184638
:1027d400a4eb080440ea0c40bee78b4208d9002e63
:1027e40078d00027c6e9000138463946bde8f087ad
:1027f400b3fa83f77fb98b4202d3824200f2bd80e1
:10280400841a61eb030301209846002ea9d0c6e97f
:102814000048a6e7ffdec7f12005bb4022fa05fc0d
:102824004cea030c01fa07f420fa05f821fa05f33f
:102834004fea1c4e48ea0404b3fbfef9210c0efbdc
:1028440019331ffa8cf841ea034309fb08fa9a4545
:1028540002fa07f200fa07f10bd91ceb030309f1a2
:10286400ff3080f088809a4540f28580a9f1020902
:102874006344a3eb0a03a4b2b3fbfef00efb1033d4
:1028840044ea034400fb08f8a04508d91ceb0404ff
:1028940000f1ff336bd2a04569d90238644440eaa1
:1028a4000940a4eb0804a0fb02894c45c6464b46ec
:1028b40054d351d0002e69d0b1eb0e0264eb030463
:1028c40004fa05f522fa07f3fc401d43c6e9005457
:1028d400002746e73746304643e7184637e70746ba
:1028e4001fe7c2f1200320fa03f7954001fa02f032
:1028f40021fa03f34fea154e3843010cb3fbfef7fc
:102904001ffa85f80efb173341ea034107fb08f36e
:102914008b4204fa02f407d9691807f1ff3c28d264
:102924008b4226d9023f2944cb1a81b2b3fbfef075
:102934000efb103341ea034100fb08f38b4207d935
:10294400691800f1ff3c10d28b420ed90238294499
:10295400c91a40ea074714e74145abd2b8eb020e67
:1029640069eb0c0201381346a4e76046f0e7184609
:1029740095e76746d8e781467be7384645e7acf1fb
:10298400020c2b4410e702382c4421e73746e8e6d2
:020000040000fa
:102994002de9f04f8bb090f82f3013f0a00f40f0da
:1029a40009810568eb681a8842b34ff0000909f100
:1029b400010933f8022f002af9d1044600f1240357
:1029c4001e4601930c22194607a806f035fc9df813
:1029d400273013f0010f00f08a80402384f82f3051
:1029e4000b2207a9304606f027fc4ff001084346a6
:1029f400a3466ff0220aaaeb040a03e04ff0000991
:102a0400dbe743460df11b06072200e00b4603f00b
:102a14000f0000f13001392988bf00f13701013a74
:102a240006f8011919090f2bf0d87e210aab1344bb
:102a340003f8141cbab194f82430202b15d004f1f7
:102a4400240104f1230010440aeb0103814203d062
:102a540011f8016f202ef7d12433234420266ff080
:102a64002300001b09e01346f6e70023f4e7314690
:102a740003f8011bc118072907d8072af7d80aa9a0
:102a8400114411f8141c0132f2e7584600f0eafb35
:102a9400074618bb08f10108b8f1640f4dd0ee6881
:102aa4000b2207a9019806f0c7fbb8f1050fa8d9b6
:102ab400b01e434630f8022f002aa3d0102102f0a2
:102ac400010606eb4303520813f4803f1cbf83f452
:102ad400883383f021030139f1d1ebe7b8f1640fb6
:102ae4006dd0042867d19df8273084f82f309df8e5
:102af400273013f0020f00f0818009f10c09504bcc
:102b0400a3fb09239e08711c204605f04ff90746d4
:102b1400002850d1b9f10c0f77d96169a1eb4611a6
:102b2400204603f0d3fa0746002844d1019806f062
:102b3400cbf902900023039318e007273be060469b
:102b440047e04ff6ff72934202d038f810300bb9c9
:102b54004af0400a81f800a00123eb7000212046ce
:102b640003f07af8074630bb013e4ed0e1692846af
:102b740005f09afc0746f0b9d5f80c80216a5ffa93
:102b840086fa029b4b734ff00f03cb724ff0000396
:102b94000b738b76cb760af1ff3000eb400300eb2e
:102ba4008300284a02f10d0e039b4ff6ff774ff086
:102bb400ff0911e0062738460bb0bde8f08f072760
:102bc400f9e792f800c001eb0c0b01f80c908bf8bc
:102bd400019001329645b4d0bb42f2d000f1010c11
:102be40038f81030107801eb000b0b54180a8bf8ee
:102bf4000100002ba3d160463b46eae701212046b1
:102c040005f0d4f807460028d5d1e169284605f037
:102c14004bfc07460028ced120220021206a06f072
:102c240011fc0b220199206a06f006fb226a94f833
:102c34002f3003f0180313730123eb70bbe700bfbd
:082c44004fecc44e5093000058
:020000040000fa
:102c4c002de9f04391b00191002800f095800446e5
:102c5c00154602f03f073a4602a901a8fff734f8df
:102c6c00064628b100232360304611b0bde8f0833e
:102c7c00029b0393019903a8fef750fe034600281c
:102c8c0040f09d809df93b30002bc0f2868037f0e0
:102c9c00010314bf0121002103a804f061fe0346c7
:102cac0015f01c0f00f08f8048b99df8123013f00e
:102cbc00110f6ed115f0040f0fd00826d2e7042b9c
:102ccc007bd16f4b1b680bb11226cbe703a8fff728
:102cdc005bfe00285bd147f0080717f0080f00f0e7
:102cec00848005f09bff054601460b980e3006f0dc
:102cfc0021fb29460b98163006f01cfb029dddf8d3
:102d0c002c804146284606f04df88146202388f851
:102d1c000b3000220b99284606f062f900210b9823
:102d2c001c3006f007fb029b0122da70b9f1000f90
:102d3c0059d0029b5d6b0022494603a803f0e4fdc9
:102d4c0008b106468ee72946029805f0a9fb09f161
:102d5c00ff33029a1361002845d0064682e700eb48
:102d6c005522226201234146787805f00bfe00289b
:102d7c003ff47aaf012675e7092675e7022671e75d
:102d8c000226e1616ee704266ce707266ae7064631
:102d9c0068e7072666e71e4664e7062662e7ed1b32
:102dac00af425dd2204602f085fe01460128e7d9ec
:102dbc00b0f1ff3ff3d10126e3e71e4652e715f0d1
:102dcc001c0f7ff47caf002be5d19df8123013f073
:102ddc00100fd8d115f0020f02d013f0010fd4d17f
:102dec0015f0080f01d047f04007029b5b6b636244
:102dfc000b9ba36237f0010314bf0121002103a830
:102e0c0004f030fa20610028b8d0029dddf82c8047
:102e1c004146284605f0c6ffa06008f11c0006f0ec
:102e2c009cf9e0602560eb88a38027750021617513
:102e3c002162a16104f130084ff40072404606f0a3
:102e4c00fdfa17f0200f3ff40fafe568002d3ff4ab
:102e5c000bafa561029b5f897f02a168bd42a1d81f
:102e6c00e161c5f30803002b3ff4feae029f384628
:102e7c0006f07ef900287ff472af0226f2e600bf5e
:042e8c0044b5002029
:020000040000fa
:102e900061001a03e0001703f8000703ff000100b8
:102ea00078010001300132010601390110014a01a7
:102eb0002e017901060180014d004302810182014a
:102ec00082018401840186018701870189018a01c9
:102ed0008b018b018d018e018f0190019101910178
:102ee00093019401f60196019701980198013d0222
:102ef0009b019c019d0120029f01a001a001a20154
:102f0000a201a401a401a601a701a701a901aa0188
:102f1000ab01ac01ac01ae01af01af01b101b20137
:102f2000b301b301b501b501b701b801b801ba01e8
:102f3000bb01bc01bc01be01f701c001c101c2015e
:102f4000c301c401c501c401c701c801c701ca0149
:102f5000cb01ca01cd011001dd0101008e01de01ae
:102f60001201f3010300f101f401f401f801280159
:102f7000220212013a020900652c3b023b023d028b
:102f8000662c3f0240024102410246020a015302fe
:102f9000400081018601550289018a0158028f0192
:102fa0005a0290015c025d025e025f0293016102bf
:102fb000620294016402650266026702970196014b
:102fc0006a02622c6c026d026e029c017002710238
:102fd0009d01730274029f017602770278027902e2
:102fe0007a027b027c02642c7e027f02a6018102af
:102ff0008202a9018402850286028702ae01440290
:10300000b101b20145028d028e028f02900291023f
:10301000b7017b030300fd03fe03ff03ac030400c1
:103020008603880389038a03b1031103c2030200e4
:10303000a303a303c4030803cc0303008c038e0380
:103040008f03d8031801f2030a00f903f303f40312
:10305000f503f603f703f703f903fa03fa03300461
:10306000200350041007600422018a043601c104c1
:103070000e01cf040100c004d00444016105260400
:04308000000000bf8d
:020000040000fa
:103084002de9f84f80460e4699469500284604f0ef
:1030940041fa002800f0c2800746542004f03afaae
:1030a4000446002800f0818007632a46a52138469b
:1030b40006f08cf9276b002e7dd0337884f83430f9
:1030c40053b1334604f134010f3613f8012f01f8dc
:1030d400012f0ab1b342f8d1002384f843300a9e89
:1030e400042e28bf0426e66266644ff0000bc4f881
:1030f40048b004f1040a504606f052fa04f11800ec
:1031040006f04efa2461c6f10506a6616462c4f8ad
:103114004cb084f850b0043d3d444a46414625f045
:10312400070005f075fc20600b9b03b11c6005f0e3
:103134009dfe3e4a1368013313603d4b1b68002b10
:103144003dd03c4b1b683bb9394b1b68da6ae36ad8
:103154009a429cbf364b1c60374a13680133136094
:10316400e06a364a1168012383400b43136000eb85
:1031740080005146324b03eb800006f013f806f052
:1031840083f82c4b1b68002b4cd0294b1b68da6a44
:10319400e36a9a4248d22b4b4ff080521a60bff335
:1031a4004f8fbff36f8f01203ae0384605f019f8ce
:1031b4004ff0ff3034e0002384f834308fe71c4ba9
:1031c4001c601368012bc7d11d4d284605f0dfff95
:1031d40005f1140005f0dbff05f1280005f0d7ff29
:1031e40005f13c0005f0d3ff05f1500005f0cfffd9
:1031f400154e304605f0cbff144d284605f0c7ffa9
:10320400134805f0c4ff134805f0c1ff124805f048
:10321400beff124b1e60124b1d609de74ff0ff3046
:10322400bde8f88f0120fbe70120f9e700b6002094
:10323400f4b5002024b600200cb6002010b60020ff
:1032440090b2002004ed00e0e0b40020f4b40020cb
:1032540008b5002030b500201cb50020f8b50020ca
:04326400fcb5002095
:020000040000fa
:103268002de9f04f87b00446d0f800b0002102f0f5
:103278002bff0246002840f0c0804ff0ff33236345
:103288004ff0ff08c1461f460ae027634ff0ff09c9
:103298000021204602f0defc0246002840f0ad8006
:1032a800e169584605f0fef80246002840f0a5807e
:1032b800256a2e78002e00f09f80eb7a03f03f02fb
:1032c800a271e52ee1d013f0080f15d00f2adcd13a
:1032d80094f82f3013f0400fdad116f0400f30d0a9
:1032e80095f80d8006f0bf06636923636b7b434541
:1032f8002dd04ff0ff09cbe70f2ae9d0b9f1000f25
:1033080004d1284605f0defd40457ad094f82f20f8
:1033180012f0010211d1691c04f1250015f80b3bcc
:1033280094f824609b1b43b911f8013b10f8016b1a
:103338009b1b8d42f7d1002b5fd027634ff0ff090d
:10334800a6e7b14518bf4ff0ff09a1d1cee7ea7e45
:10335800ab7e53ea02235bd1dbf80c0005902b7897
:1033680003f03f03013b03eb430203eb8203dff867
:10337800c4a00121cdf80480cdf808b00496984681
:103388000394044606e04ff6ff739e4249d1284b4a
:103398009a451ad01af8013bea185278ee5c46eac8
:1033a80002260029efd0b8f1ff0f2cd8304602f0e2
:1033b80031fe834608f1010934f8180002f02afeac
:1033c800834528d13146c846e1e7ddf808b0049eb8
:1033d8004246ddf80480039c2b7813f0400f04d09c
:1033e80019b1059b33f812301bb9013e5ffa86f913
:1033f8004ee74ff0ff094be70422104607b0bde83f
:10340800f08f4a46f9e7ddf80480ddf808b0039c40
:103418004ff0ff093ce7ddf80480ddf808b0039cb5
:10342800f6e7ddf80480ddf808b0039cf0e700bf9c
:083438005d93000050930000b9
:020000040000fa
:103440002de9f04f87b0044688461646994600237a
:10345000c9f80030039005a904f0a2fe01900028ed
:1034600045d1637d0193002b41d1237d13f0020fe1
:1034700000f0c680a369f34200d3de43002e00f0c3
:10348000ba8004f13003029390e0e169039801f0ff
:1034900035fd002800f0af8001282cd0b0f1ff3faf
:1034a0002dd0e061a36803b9a06094f91430002b1b
:1034b00029dbddf814b0e169584605f05ffe82466d
:1034c00090b3ba44b6f5007f45d3750abbf80a300d
:1034d0007a199a4288bfdd1b2b46524641469bf81b
:1034e000010005f0c7f918b3012363750193019832
:1034f00007b0bde8f08f022363750193f7e701235e
:1035000063750193f3e70123226a029905984078d5
:1035100005f0b0f920b9237d03f07f032375c8e7d8
:10352000012363750193e2e7022363750193dee7ec
:10353000216aa1eb0a01a94201d36d0226e04ff4f2
:10354000007208eb4121029805f078fe237d03f01c
:103550007f032375f1e7236a534503d0a269e3682b
:103560009a423bd3c4f820a0a069c0f30800c0f57c
:103570000075b54228bf35462a464146029b18448d
:1035800005f05cfe237d63f07f032375d9f80030de
:103590002b44c9f80030a844a3692b44a361e26816
:1035a000934238bf1346e360761b24d0a369c3f36c
:1035b0000802002ad8d1059a5789013f17ea5327f4
:1035c0007ff473af002b7ff460afa06800287ff416
:1035d00063af0021039801f091fc5ae701235246a2
:1035e00002999bf8010005f0d3f90028bad0012315
:1035f000637501937be7237d43f04003237576e7f2
:063600000723019373e7ac
:020000040000fa
:0236060070470b
:020000040000fa
:1036080010b504465c4905f091f910b102f0b4fe1a
:1036180010bd5a49204605f089f910b102f000ffa3
:10362800f6e75749204605f081f928b1554b4ff484
:103638008032c3f89820ebe75349204605f076f925
:1036480028b1504b4ff48032c3f89420e0e74f493b
:10365800204605f06bf928b14a4b4ff40032c3f805
:103668009820d5e74a49204605f060f928b1454b2e
:103678004ff40032c3f89420cae74649204605f0c3
:1036880055f928b13f4b4ff40022c3f89820bfe703
:103698004149204605f04af928b13a4b4ff4002237
:1036a800c3f89420b4e73d49204605f03ff928b116
:1036b800344b4ff48022c3f89820a9e738492046b4
:1036c80005f034f928b12f4b4ff48022c3f8942029
:1036d8009ee73449204605f029f928b1294b4ff4d3
:1036e8008002c3f8982093e72f49204605f01ef979
:1036f80028b1244b4ff48002c3f8942088e72b4963
:10370800204605f013f928b11e4b4ff40002c3f808
:1037180098207de72649204605f008f928b1194b7d
:103728004ff40002c3f8942072e72249204605f0be
:10373800fdf840b1134b4ff40012c3f81821920062
:10374800c3f8982064e71c49204605f0eff840b11b
:103758000c4b4ff40012c3f814219200c3f89420c4
:1037680056e71649204605f0e1f800283ff450af27
:1037780003f000fd4ce700bf143b0000283b0000ad
:103788003c3b000000800041543b00006c3b0000c3
:10379800843b00009c3b0000b03b0000c83b00009d
:1037a800dc3b0000f43b0000083c0000203c00002b
:1037b800343c00004c3c0000603c0000743c0000bd
:020000040000fa
:1037c8002de9f04f87b005468846144699460023f0
:1037d800c9f80030029005a904f0defc009000282a
:1037e80040f09d806b7d0093002b40f098802b7dee
:1037f80013f00103039300f0ac80ee68ab69f61a8e
:10380800a64228bf2646002e00f0898005f1300325
:1038180001934fe0e969029802f04ef958e002235b
:103828006b7500937be001236b75039b009376e037
:1038380002236b75009372e095f91430002b01dbbd
:1038480064022ce0286aa0eb0a00a042f8d24ff4e8
:103858000072019908eb402005f0ecfcf0e72a6ab9
:1038680052450cd095f91430002b5cdb01235246ed
:1038780001990598407805f087f8002864d1c5f8c3
:1038880020a0a969c1f30801c1f50074b44228bf9a
:1038980034462246019b1944404605f0cbfcd9f832
:1038a80000302344c9f80030a044ab692344ab611d
:1038b800361b34d0ab69c3f30802002ae1d1059a5c
:1038c8005789013f17ea532708d1002ba2d1a868ce
:1038d8000128a4d9b0f1ff3fa5d0e861ddf814b004
:1038e800e969584605f046fc82460028a0d0ba444b
:1038f800b6f5007fb3d3740abbf80a303a199a4276
:1039080088bfdc1b2346524641469bf8010005f060
:103918003bf8002890d001236b75039b0093009817
:1039280007b0bde8f08f012301999bf8010004f06e
:103938009dff20b92b7d03f07f032b7596e70123ac
:103948006b75039b0093eae701236b75039b009358
:08395800e5e707230093e2e715
:020000040000fa
:103960002de9f04383b004460e46814601a904f0d8
:1039700017fc8046002859d194f81580b8f1000f43
:1039800054d1e368b34205d2227d02f00202002a3c
:1039900008bf1e46a3690022a261002e46d0019aec
:1039a00057897f026bb1013b721eb2fbf7f2b3fb8a
:1039b000f7f18a4205d37a421340a361f61ae5690a
:1039c00003e0a568002d35d0e56185b1be4258d829
:1039d000a3693344a361c6f30803002b70d02946c2
:1039e000019805f0cbfb002865d000eb5625a369b4
:1039f000e268934204d9e360227d42f040022275de
:103a0000c3f3080393b1226aaa420fd094f9143089
:103a1000002b57db01232a4604f13001019840783e
:103a200004f0b6ff804600285ed12562404603b010
:103a3000bde8f0830021204601f060fa0546012828
:103a400004d0b0f1ff3f06d0a060bde74ff0020800
:103a500084f81580eae74ff0010884f81580e5e75f
:103a60002946484602f02cf80546b5f1ff3f18d02c
:103a7000012d1bd9019bdb69ab4217d9e561b74228
:103a8000a6d2f61ba3693b44a361237d13f0020f6a
:103a9000e6d02946484601f031fa05460028e4d12f
:103aa000a5e74ff0010884f81580bfe74ff0020842
:103ab00084f81580bae74ff0020884f81580b5e75e
:103ac0001d4694e7012304f130010198407804f089
:103ad000d1fe20b9237d03f07f0323759ae74ff0d1
:103ae000010884f81580a1e74ff0010884f81580db
:023af0009ce751
:020000040000fa
:023af200fee7ed
:020000040000fa
:103af4000000000068656c6c6f2e74787400000020
:103b040048656c6c6f20776f726c64210d0a00003d
:103b1400434d443a204750494f204f4e20414c4c8e
:103b240000000000434d443a204750494f204f467f
:103b34004620414c4c000000434d443a2053575f0b
:103b44003356335f3120454e41424c45000000005e
:103b5400434d443a2053575f3356335f3120444931
:103b64005341424c45000000434d443a2053575fb3
:103b74003356335f3220454e41424c45000000002d
:103b8400434d443a2053575f3356335f3220444900
:103b94005341424c45000000434d443a2053575f83
:103ba40035565f3120454e41424c4500434d443a21
:103bb4002053575f35565f312044495341424c45a9
:103bc40000000000434d443a2053575f35565f329e
:103bd40020454e41424c4500434d443a2053575fe3
:103be40035565f322044495341424c4500000000a1
:103bf400434d443a2053575f35565f3320454e4179
:103c0400424c4500434d443a2053575f35565f3389
:103c14002044495341424c4500000000434d443a7e
:103c24002053575f35565f3420454e41424c450082
:103c3400434d443a2053575f35565f34204449532b
:103c440041424c4500000000434d443a2053575f25
:103c540031325620454e41424c450000434d443ad2
:103c64002053575f3132562044495341424c45005a
:0c3c7400434d443a2046415446530000a2
:020000040000fa
:103c80002de9f04f87b00190894600929a4605aa27
:103c9000012104f0a0fc002840f0a380ddf814808e
:103ca000564b984540f29f8010264ff63e42b8fb97
:103cb000f6f393421cd9760016f0ff06f7d14ff4c5
:103cc00000720021504605f0bffbff264c4ba3fbc2
:103cd00008235b090293a9f104090af5e3740af5c4
:103ce000fb733f25dff81cb1cdf80ca09a464de0e0
:103cf0004ff400720021504605f0a6fbe6e7a8eb62
:103d00000507002f53d02946204605f019fb3946f8
:103d1000201d05f015fb009b04f8043cabfb0523bc
:103d2000ea1a03eb52035b09b3fbf6f206fb12310e
:103d300004f8071c910821f03f01c3eb8313eb1a31
:103d400001330b4304f8063c04f8052c3d446a1e7d
:103d5000abfb0213d11a03eb51035b09b3fbf6f083
:103d600006fb103104f8031c810821f03f01c3eb6e
:103d70008313d31a01330b4304f8023c04f8010cfb
:103d8000544517d055b3103445450dd259f8047f2a
:103d9000642f03d81abf029b5f4347467b194345f4
:103da000add8ab42add2aae7ddf80ca004e0ddf857
:103db0000ca001e0ddf80ca055238af8fe31aa23ff
:103dc0008af8ff31012300225146019804f052fd88
:103dd000003018bf012007b0bde8f08fddf80ca05f
:103de000eae70120f7e74ff400720021504605f0a2
:103df0002bfbb8f13f0fdfd9082667e7f7e1070093
:083e00001f85eb510541100480
:020000040000fa
:103e08002de9f04f87b00392002840f0b5800f46a7
:103e18001e465b4b1c686069b0f1ff3f2ed0636a99
:103e28001b699b680593b3f5007f0fd94fea5328a8
:103e3800b8f1010f16d0524b01229a75002e00f0ee
:103e4800888004f11c030493029653e0059ab2f5a6
:103e5800007f07d04ff40073b3fbf2f303fb07f7bf
:103e680003fb06f6022384f82130a3680096dd6878
:103e78003b46039a04f11c01a847e06907b0bde876
:103e8800f08f4ff0020384f821306069a3684ff483
:103e9800007200929b681e46059a0bfb02f3394a92
:103ea8000499b047029e94f92120022a06d1a368fa
:103eb800db6a002bf9d020699847f4e7029642b9eb
:103ec8006a0203992f4b03eb4a2005f08af92d4a21
:103ed8001ee02b4b00229a754ff0ff30cee702967a
:103ee800002a30d1029b5b1b02932f44039b03ebf8
:103ef80045230393b7fbf8fb08fb1b7aa8eb0a09d9
:103f08004d46029b994528bf1d46a845b9d1039a3d
:103f1800029eb1451fd24ff0020384f82130606938
:103f2800a36801210091d3f80c905b460499c84717
:103f380094f92120022ad2d1a368db6a002bf9d098
:103f480020699847f4e70e4b00229a754ff0ff302e
:103f580094e7b346039a0a4b00219975022384f823
:103f680021306069a36801210091dd685b4604f196
:103f78001c01a847e06981e74ff0ff307ee700bfea
:083f8800a0b4002000ab0020f2
:020000040000fa
:103f9000f0b597b00190022208a901a8fdf79afe9a
:103fa000044680b90b22202102a805f04dfa019b9e
:103fb0001b781f2b3ed9002440f2b516524f87e0e4
:103fc000062400e00624204617b0f0bd254638e060
:103fd0000b2202a9119805f031f947e0042801d01d
:103fe0000446f0e7002deed0012109a803f0e0fe21
:103ff00004460028e7d120220021119805f024fa78
:10400000119b0822da720b2202a9119805f016f909
:10401000089b0122da70089802f0a0fd0446d2e75e
:104020000624d0e70624cee70624cce70624cae718
:104030000624c8e79df80830e52b01d10624c2e725
:104040000025089b099300210b9109a802f040f874
:1040500004460028b7d1012109a800f0c3fb0028bd
:10406000bcd1002db4d1119be5221a70089b01220e
:10407000da70089802f072fd0446a4e79df8082063
:10408000e52ad1d0202ba1d116ab2b44513b002dda
:10409000d7d0691e13f80129202ad2d10d46f6e7a0
:1040a000092cc3d8651c16aa14441a0a04f8502c0b
:1040b00004e0ff2bf4d80a2cbad825466c1cdbb2de
:1040c00016aa2a4402f8503c019a12781f2ad5d920
:1040d00001a804f01ffdb0f5803fa1d201f09effc2
:1040e000314604f015f8034600289bd02b283ff4f6
:1040f00067af2e22791c92b293423ff463af11f85e
:0c410000012f002af7d1d4e750920000f4
:020000040000fa
:10410c00584b9b7d002b00f0ab8010b5554a536883
:10411c0003f00703127e12f0040f5bd0514a906a31
:10412c00514a5169d268914254d2002b43d14e4b23
:10413c005a684c1c5c6150544a4b1b7e13f0010fa7
:10414c0018d0484b01221a75474b9a699b689a42c2
:10415c0058d2454b1968501c98618a5c414b9a6245
:10416c00414b9a699b689a4261d03f4b5a69db6814
:10417c009a4269d03b4b1b7e13f0020f14d03b4b81
:10418c001b78bbb1384b5a69db689a420fd1364b5e
:10419c0000221a7733490720087534490a701b6ac4
:1041ac0043b1314a506a9847304b1b7813b12d4bb1
:1041bc0002229a7510bd2c4b5a684c1c5c6122f87b
:1041cc001100284b1b7e13f0010fd3d0254b01227d
:1041dc001a7509e0234a127e12f0010fcad0214a47
:1041ec0001211175002bafd01f4b9a699b689a4225
:1041fc0012d21d4b1968501c986131f81220194bc2
:10420c009a62ade7184b1b6923b3164aff219162e2
:10421c00013b154a1361a3e7134b1b69d3b1114a38
:10422c004ff6ff719162013b0f4a136198e70e4bf9
:10423c001b69002b99d10d4b01221a70094b1b7e67
:10424c0013f0020f9ed1b2e7064b01229a7504229d
:10425c001a758fe7044b9a699b689a4285d1eae7f5
:10426c00704700bf00200141c8b3002091b5002069
:020000040000fa
:10427c002de9f84304460f461546012105f00cf9cb
:10428c00064600285fd0524b13f8372042f040020c
:10429c002270c5f307626270c5f30742a270c5f3c2
:1042ac000722e270edb2257103ebc7035b786371f3
:1042bc00ff23a371052fa04614bf06220722214617
:1042cc00204605f0dff8064600283fd008254ff0c1
:1042dc0001094a464146204605f0d9f80646002811
:1042ec0039d02378dbb2ff2b01d1013df1d12378fa
:1042fc00dbb2ff2b34d0237884f89d30344b03eba6
:10430c00c7039b78012b31d0314b03ebc7077d687a
:10431c002a462146204605f0baf80746002851d017
:10432c00012d0cd005f19d03234404f19e0061196d
:10433c009d31ca1aa25c03f8012d8342f9d10021e8
:10434c00204605f0a9f83046bde8f8830021204648
:10435c0005f0a2f8f7e70021204605f09df8f2e7fa
:10436c000021204605f098f80026ece76421204651
:10437c0004f07afc0546c8b101252a464146204680
:10438c0005f085f80746b8b194f84e3013b9237888
:10439c00002bf2d1204604f0bffe2378002bced1a7
:1043ac000021204605f078f80026cce700212046b5
:1043bc0005f072f82e46c6e70021204605f06cf891
:1043cc003e46c0e70021204605f066f83e46bae7b7
:0443dc007465000004
:020000040000fa
:1043e0002de9f84fd0f800a000238b75c369002b8e
:1043f00000f091800c460546036bb3f1ff3f2fd0d0
:1044000000263746b04640f2b51b08e004eb08032f
:10441000020a9a75d8750223984400270236daf802
:104420000c30985b58b32fb900f520539bb2b3f50d
:10443000006f22d3c8f1ff09594640ea074003f054
:1044400067feff2810d9b9f1010fdfd84ff000093e
:10445000002f18bf4ff00009a144002389f816303f
:1044600000210b462e2615e058b1b9f1000fefd010
:1044700004eb080398750123cee70746cee7c14653
:10448000e6e74ff00009e3e7601843720131134695
:104490000b2a0fd05a1c286ac35c202bf7d0052b9f
:1044a00008bfe523092aefd10b29edd86018467221
:1044b0000131e9e7631800225a72a37dbbb959b1f3
:1044c000637a104663b104f1090208274ff0100c1b
:1044d0006ff00706361b27e0481c21443f238b75ed
:1044e0002044002383752b6a1b7b03b963722b6afc
:1044f000db7a2372286a1c3004f035fe20602a6ab9
:10450000d17d937d43ea0123e3802a6a517e137ea5
:1045100043ea0123a380bde8f88f67465373b018c0
:1045200012f8013f002bdbd09bb22e2bf5d0a3f16c
:10453000410189b21929f1d8296a097b0f42edd0ce
:044540002033ebe752
:020000040000fa
:104544002de9f04184b0044601914ff0000846463d
:1045540045464f4f43e0013ba36323684bb12369b6
:104564005bb904f091fe4ff00108404604b0bde889
:10457400f08104f01dfda060f1e704f1100002f0e9
:10458400affe0028edd0424b4ff080521a60bff3cb
:104594004f8fbff36f8fe4e704f076fe4ff000080f
:1045a400e3e702a804f09afd23e004f05ffca068ae
:1045b40001f090fe804604f067fe40e0204602f0e1
:1045c4005efd01f09df909e0204602f058fd01f07e
:1045d40097f9204604f0f1fd002844d1012604f0a7
:1045e40045fca36b002bb6d1019b002bd4d0002e2d
:1045f400d7d004f049fe04f0e1fe04f037fc94f84f
:1046040044305bb2b3f1ff3f08bf84f8445094f8e0
:1046140045305bb2b3f1ff3f08bf84f8455004f066
:1046240033fe01a902a803f0b3fa0028ccd1204636
:1046340004f0c3fd0028c1d02368002bb5d0019934
:1046440004f1240004f0a6fc204602f018fd01f059
:1046540057f90028c2d14ff080533b60bff34f8f0e
:10466400bff36f8fbae7b8f1000f3ff47eaf04f0e9
:10467400fdfb616a19b1236b1968c1f10501a068da
:1046840002f07efc04f000fe4ff000086de700bf6e
:0446940004ed00e051
:020000040000fa
:104698002de9f84381460f461646984603f0a2fcda
:1046a800002800f090800446eeb1e7b1256895f83f
:1046b800303013b1eb6a4b451dd105f138094ff67f
:1046c800ff71484604f0effb012820d00024424b3c
:1046d8001b78002b78d0404b00221a7005f144005b
:1046e80004f0a6fc70e0089b002b70d0b8f1000f16
:1046f800dcd1002468e04ff6ff7105f1440004f0b6
:10470800d2fb002865d0344b01221a70d5e7ab697b
:10471800a34231d06b691b68002104f10800984757
:104728000023237794f91830b3f1ff3f0ed0627e4f
:1047380032bb03f01f02c3f34a1303f5020000f56e
:10474800807001219140c00104f02dffac616369c4
:104758005a1e072a22d8089b5b00089376006b69cb
:104768005c68089b424631463846a0470446e0b993
:10477800484604f05dfcaae7237f002bd2d0c9e7a6
:1047880003f01f02c3f34a1303f5020000f580701b
:1047980001219140c00104f004ffd7e7092bded1c5
:1047a800089b9b000893b600d9e74ff6ff7105f107
:1047b800400004f069fb012803bfac7fb4fa84f41d
:1047c80064090024d4e700242046bde8f8830024c7
:0c47d800fae70024f8e700bf3fb600201d
:020000040000fa
:1047e4002de9f04f83b00446894607684ff0ff0a6d
:1047f40055460426d0464ff6ff7b64e00f2a50d17d
:1048040013f0400f0ad090f80da003f0bf036269c3
:104814002263427b524506d045464ee09d4218bf76
:1048240045464ad1f5e7c17e827e52ea01226fd124
:10483400fe680196057825f04005013d05eb45022b
:1048440005eb8205334901f10d0e4ff0010c009385
:104854006346b44603e05a455ad171450fd011f866
:10486400012b86187678825c42ea0622002bf2d06d
:10487400ff2d4dd82cf8152013460135ede79c4645
:10488400009b027812f0400f08d0bcf1000f05d055
:10489400ff2d3dd80022019921f81520013bddb2fe
:1048a4000be01db904f010fb50452dd04ff0ff3341
:1048b400236329e0454600e045460021204601f0f7
:1048c400cbf90646f0b9e169c9b1384603f0ecfd0d
:1048d4000646b8b9206a03789bb1c27a02f03f0257
:1048e400a271e52be6d02e2be6d022f02001082978
:1048f40014bf00210121494580d04546dde71eb1a2
:1049040000e004260023e361304603b0bde8f08fe5
:084914004546d2e75093000074
:020000040000fa
:10491c002de9f047d6b00190894606460022027078
:10492c0048a901a8fdf7d0f90746002865d1489b96
:10493c004993d3f818a0cdf82ca1baf1000f64d08c
:10494c004c464ff0200800252be002a949a8fff7a0
:10495c0041fd9df81e30002b72d00df11e012b462f
:10496c0000e013465a1c11f8010f0028f9d1991ccc
:10497c00a14256d8002a46d056a90b44a3f59d73e4
:10498c00a21a013c13f8010901990855a242f8d169
:10499c00541e019b2f221a55ddf82ca1baf1000fe1
:1049ac0043d0414649a801f08dfb002833d15099e2
:1049bc00489803f075fd80bb5199489804f0f2f9c2
:1049cc004b90294649a801f07dfb40bb294649a8dc
:1049dc00fff702ff034660b95199489804f0e2f9d9
:1049ec005045b2d0294649a801f032f903460028b7
:1049fc00ecd0042b14bf1f4602270023337038461b
:104a0c0056b0bde8f0872246c2e74c46013c019bfc
:104a1c002f221a550be00746efe70746ede707464e
:104a2c00ebe71127e9e71127e7e7a145eed0631c77
:104a3c00019a125d06f8012b1c469945f7d8dce764
:084a4c00002cf0d02246a3e784
:020000040000fa
:104a540030b40c4600294dd000284bd04649097f7c
:104a6400002940f08680454d6d6805f00705012d4d
:104a740046d0414908604a6000254d618d610d6151
:104a8400a84208bf2c468c60aa4218bf1d460a469d
:104a9400cd6001211177394a127e12f0040f05d03e
:104aa400364a916a117e11f0040ffad1334a518bc0
:104ab40041f004015183117e41f080011176a54239
:104ac40002d92a1b2c490a612c4a526812f0070f9a
:104ad4002bd1294a9269a2421cd2007827498862c4
:104ae400013225498a61002b3bd0244b04229a755c
:104af40001213be0002b38d0002aafd1002135e062
:104b040014b114f0010f31d1002bb2d013f0010f06
:104b1400afd02be0184a1269002ae4d01749ff20cd
:104b24008862013a14490a61dde76408124a946014
:104b34001169490811616d08d5609269944206d9da
:104b440000880e49886201320b498a61cbe700294b
:104b5400c9d00a4a4ff6ff7090620139064a1161c2
:104b6400c1e70121054b997500e00021084630bcde
:104b740070470021fae700bfc8b3002000200141bc
:020000040000fa
:104b84002de9f047012940f28980c3698b4240f244
:104b9400878016460c4605460378022b4dd0032b1e
:104ba40060d0012b03d002273846bde8f08701eb23
:104bb4005108816a01eb582103f076fc074600286e
:104bc400f2d105f1400908f1010ac8f3080814f00c
:104bd400010f1ad019f8083003f00f0343ea061343
:104be40009f808300123eb70a96a01eb5a21284621
:104bf40003f05afc002855d1caf308014944c6f30e
:104c040007120a700123eb70cee709f8086001234c
:104c1400eb70a96a01eb5a21284603f045fc0028f1
:104c240042d1caf3080a09eb0a0119f80a3023f041
:104c34000f03c6f303221a43e3e7816a01eb14214d
:104c440003f032fc07460028aed105f140036100b1
:104c540001f4ff7158185e54c6f307224270012311
:104c6400eb70a1e7816a01ebd41103f01dfc074648
:104c7400002899d126f0704605f14003a10001f403
:104c8400fe715c18204604f06cfa00f07041314368
:104c9400204604f053fb0123eb7085e7022783e7ea
:0c4ca400022781e707467fe707467de70f
:020000040000fa
:104cb00030b5a7b001900091684602f085fe02224f
:104cc0000ba901a8fdf706f8034610b1184627b056
:104cd00030bd0b9b1993019919a8fcf725fe0346db
:104ce0000028f3d19df8933013f0a00f71d1022169
:104cf00019a802f03bfe03460028e7d120222199a3
:104d000003a804f09bfa342219a90ca804f096fa1f
:104d100000990ca8fcf708fe034658b90e9a1b9b95
:104d20009a4201d00823d1e7119a1e9b9a4203d0e0
:104d30000823cbe70428c9d10ca8fdf72bfe0346b6
:104d40000028c3d1149c13220df1190104f10d00a8
:104d500004f074fa9df8173013f0100f08bf43f0f9
:104d60002003e3720b9b0122da70e37a13f0100f39
:104d70001bd01b9a0e9b9a4217d00b9d21462846aa
:104d800004f016f80146284604f0f8f9014608b97f
:104d900002239be7284603f089fb0346002895d1b0
:104da0000b9890f861302e2b0ad019a802f068fefb
:104db000034600288ad10b9801f0d0fe034685e710
:104dc0000e9a00f1600104f011f90b9b0122da70d8
:064dd000ebe706237ae781
:020000040000fa
:024dd600fee7f6
:020000040000fa
:104dd8002de9f04784b00446884601921d464ff0fd
:104de80000094e46424f33e02a464146204602f02b
:104df800fff9636a73b938b13d4b4ff080521a60be
:104e0800bff34f8fbff36f8f04f03cfa012004b05b
:104e1800bde8f08704f1240002f060fa0028f3d01e
:104e2800334b4ff080521a60bff34f8fbff36f8f31
:104e3800eae704f027fa0020e9e702a804f04cf9b1
:104e480014e0204602f019f900f058fd4ff001096e
:104e580004f00af8a26be36b9a42c5d3022dc3d0c3
:104e6800019b002be5d0b9f1000fe6d004f00afa57
:104e780004f0a2fa03f0f8ff94f844305bb2b3f1ff
:104e8800ff3f08bf84f8446094f845305bb2b3f143
:104e9800ff3f08bf84f8456004f0f4f901a902a8af
:104ea80002f074fee8b903f0dfffd4f838a0d4f8b4
:104eb8003c9004f0e7f9ca45c3d1019904f1100008
:104ec80004f066f8204602f0d8f800f017fd002834
:104ed800bcd14ff080533b60bff34f8fbff36f8f50
:104ee800b4e7204602f0c9f800f008fd00208ee77c
:044ef80004ed00e0e5
:020000040000fa
:104efc002de9f04107460668884659b93569002df9
:104f0c0074d0f369ab4298bf01257369002b6ad04a
:104f1c002c4638e000f0cefd034601285ed9b0f1f6
:104f2c00ff3f60d0f26982425dd87369002b5ad082
:104f3c0008f10104a24298bf02242146384600f031
:104f4c00b9fd034601284ed0b0f1ff3f4bd038b12c
:104f5c003569012d08d9f369ab4298bf4546d7e7af
:104f6c00002c45d14546d3e74546d1e72146384686
:104f7c0000f0a0fd034670b1012834d0b0f1ff3f22
:104f8c0031d0ac422ed00134f369a342eed8012dbe
:104f9c0026d90224eae74ff0ff3221463046fff7cc
:104fac00ebfd034668bbb8f1000f0ed1346172699a
:104fbc00f369023b9a429cbf02f1ff327261337972
:104fcc0043f00103337123460de02246414630463f
:104fdc00fff7d2fd03460028e8d012e0012302e0df
:104fec00002300e000231846bde8f08101258ce782
:104ffc004ff0ff3221463046fff7befd0346002836
:0e500c00e3d0012b0cbf4ff0ff330123ebe785
:020000040000fa
:10501a0070b596b00190022203a901a8fcf755fecb
:10502a00044610b1204616b070bd039b099301993e
:10503a0009a8fcf774fc0446b0b10428f2d19df823
:10504a00533013f0200f0dd1039b0493002104a8c1
:10505a00fff74fff054648b1012d58d103f0dffd98
:10506a0002245ae00624dde70824dbe703f0d7fd33
:10507a00072452e003f0d3fd06462946039802f0be
:10508a00ccfc0446002848d10b222021039840304a
:10509a0004f0d5f903982e2480f84040102380f8b4
:1050aa004b303146563004f046f903982a4600f14f
:1050ba00400103f096ff0398202200f1400160307e
:1050ca0004f0b7f8039880f861400b9a00f1600188
:1050da0003f087ff039b0122da7009a8fdf755fc4c
:1050ea000446d0b931461198163004f024f92a46fc
:1050fa001199039803f075ff119b1022da72039b32
:10510a000122da70039801f024fd04468ae7b5f11a
:10511a00ff3fafd103f083fd01240022294604a8f2
:06512a0001f0f3fb7ee73b
:020000040000fa
:105130003c4b42f206229a821a46d36813f0010fc2
:10514000fbd0384b00221a7403f50063364a9a628a
:105150001a46536813f0100ffbd1344b4222c3f8a8
:1051600084201a46d2f8843013f0400ffad0304b26
:1051700000229a6377225a631a46d36b13f0040f06
:10518000fbd12b4b022283f830201a46d36b13f04d
:10519000020ffbd1264a136c03f00303032bfad151
:1051a000244b01225a711a46d37813f0010ffbd019
:1051b0001e4b214a1a621a46536813f0040ffbd1a2
:1051c0001a4b1e4a5a621a46536813f0080ffbd155
:1051d000164b4122c3f8dc201a46d2f8dc3013f01b
:1051e000400ffad0114b4122c3f8e0201a46d2f802
:1051f000e03013f0400ffad00c4b4122c3f80821e5
:105200001a46d2f8083113f0400ffad0094b6ff06c
:105210007f421a6140f2ff725a61094a9a61012283
:105220001a6270470014004006013000001c004064
:1052300000100040000800400701010007010200c3
:04524000568601008d
:020000040000fa
:105244002de9f047384b1b68002b67d1374b1f689b
:1052540001371f60bfb1364b1b68bb4220d9002504
:10526400344b1b68db6a03eb83039b00324ad3583d
:10527400022b28bf0125314b1b68002b18bf0125c9
:105284002846bde8f0872e4a11682e4b1868106036
:1052940019602d4a13680133136003f0e5fbdae764
:1052a4000025dff89c80dff8a890dff88ca021e0cf
:1052b4001f4b4ff0ff321a60d2e71d4a1360cfe74d
:1052c40004f1180003f01cfde06ad9f80020012362
:1052d40083401343c9f8003000eb800031460aebe9
:1052e400800003f05fff134b1b68e26adb6a9a429b
:1052f40028bf0125d8f800301b68002bd8d0d8f877
:105304000030db68dc6863689f42d6d3261d3046d4
:1053140003f0f6fca36a002bd2d1d5e70b4a13683d
:10532400013313600025abe708b6002028b600203f
:1053340018b60020f4b5002090b200202cb600204e
:10534400f8b50020fcb500201cb6002020b60020d3
:0453540010b600206f
:020000040000fa
:10535800c700fc00e900e200e400e000e500e70027
:10536800ea00eb00e800ef00ee00ec00c400c50026
:10537800c900e600c600f400f600f200fb00f900e0
:10538800ff00d600dc00a200a300a500a720920120
:10539800e100ed00f300fa00f100d100aa00ba0024
:1053a800bf001023ac00bd00bc00a100ab00bb00d7
:1053b80091259225932502252425612562255625c8
:1053c80055256325512557255d255c255b25102529
:1053d800142534252c251c2500253c255e255f2514
:1053e8005a25542569256625602550256c2567258d
:1053f80068256425652559255825522553256b258b
:105408006a2518250c25882584258c259025802536
:10541800b103df009303c003a303c303b500c403b0
:10542800a6039803a903b4031e22c603b5032922c1
:105438006122b1006522642220232123f70048223b
:10544800b0001922b7001a227f20b200a025a000c0
:020000040000fa
:10545800002864d138b5394b93f82030002b61d13e
:105468000c46374803f0d8fd00285ed0354803f0d5
:10547800d3fd00285cd000231a461946324802f0b2
:105488003afc002857d02d4d002385f83c300122e6
:1054980085f82020ab62a168e962e1686962216849
:1054a80069654ff0ff31a965217985f8d01094f925
:1054b800111085f85d1094f9100085f85c00a16959
:1054c8002966e16969666169a9666a86aa8685f8b6
:1054d800703085f8713085f8733085f83d3085f87f
:1054e8003e3085f83f3085f8d12000f01f01c0f329
:1054f8004a1000f5020000f5807002fa01f1c001bf
:1055080004f04ff895f8d0302bb90c4b022283f8f1
:105518003c20002008e0002003f06efef5e74ff085
:10552800ff3070474ff0ff3038bd4ff0ff30fbe7da
:105538004ff0ff30f8e74ff0ff30f5e710b10020eb
:0c554800e4b10020e8b10020ecb100202c
:020000040000fa
:1055540010b4374b374a1a60374a1a61002283f86d
:10556400402083f84120012183f84c1083f84d102a
:1055740083f84e1083f84f2083f8512083f852208b
:1055840083f85320402083f8550083f8581083f89b
:10559400591083f85b20222083f83600022483f814
:1055a4003740772483f83c40244cc3f880404ff4c0
:1055b4004054c3f8904083f8cc1083f8cd1083f89e
:1055c400cf2083f8d02083f8d12083f8d22083f829
:1055d400d32083f8d41083f8d51083f8d62083f829
:1055e400d72083f8d82083f8de2083f8df2083f8df
:1055f400b60083f8ba001249c3f8001183f84a21af
:1056040083f84b2183f84c2183f84d2183f84e21f4
:1056140083f84f2183f8502183f8512183f85221d4
:1056240083f8532183f855215df8044b704700bf7c
:105634000080004100802e08007020000080cfc14f
:0456440000fc2f0037
:020000040000fa
:1056480070b504460023c3704ff0ff33436302f084
:1056580029ffb0bb94f83f3294f83e0240ea032099
:1056680094f84030eb2b0ad01833dbb2012b06d963
:105678004af6552398420cbf0220032070bd4af613
:10568800552398420ad094f84c2094f84b3043eaba
:1056980002235a1e1a4243d00320efe704f1930273
:1056a80094f89230463b04f19a0620496bb912f8f7
:1056b800013b11f8015b5b1bb242f7d12bb900200b
:1056c800dce70420dae70220d8e794f84c2094f8c5
:1056d8004b3043ea02235a1e1a42f4d1b3f5007f35
:1056e8001cd194f84d30002bc2d05a1e1a42bfd19b
:1056f80094f85030013bdbb2012bb9d894f8522012
:1057080094f8513053ea0223b2d094f8572094f811
:10571800563053ea0223abd00020afe70220ade7b2
:10572800b3f5007fddd00320a8e700bf057e0000a9
:020000040000fa
:10573800002860d1364b93f91030022b02d04ff07d
:10574800ff30704770b50e464ff6ff71314803f0d1
:10575800aafb002852d02e4b5b78002b3cd12c4b57
:105768005b68002b3ed12a4b9d68002d49d0d86834
:10577800044643795bb100230133dbb2ab4240d02e
:1057880003ebc30400eb84046279002af4d10122fc
:1057980062711f4a22602671ff2222760022227738
:1057a80016f0080f02d01a4a01215170184a5168a0
:1057b80001315160928b43ea02432362531c9bb22e
:1057c8004ff6ff72934208bf0123114883833c3090
:1057d80003f02efc206a70bd0e4803f029fc4ff040
:1057e800ff30f8e716f0080fbdd00a4803f020fc98
:1057f8004ff0ff30efe74ff0ff3070474ff0ff30ca
:10580800e9e7044803f014fc4ff0ff30e3e700bf7a
:0858180044b3002080b300201e
:020000040000fa
:1058200000285fd1354b93f93c30022b02d04ff06a
:10583000ff30704770b50e464ff6ff71304803f0e9
:1058400036fb002851d02d4b93f82030002b43d04d
:105850002a4b93f82130002b3ed1284b9a6ad86a04
:10586000824239d2002a34d1002841d0234b5d6acc
:105870002c466b784bb100230133dbb2984237d012
:1058800005eb03146278002af6d10122627000222f
:10589000a260a670227016f0080f03d0174a0121eb
:1058a00082f82110154a916a01319162518e43eac2
:1058b0000143e360538e01339bb24ff6ff72934274
:1058c00008bf01230d484386d83003f0b5fbe068dc
:1058d00007e016f0080fc7d0094803f0adfb4ff002
:1058e000ff3070bd4ff0ff3070474ff0ff30f8e7ea
:1058f000034803f0a1fb4ff0ff30f2e710b10020a6
:04590000e8b10020ea
:020000040000fa
:105904002de9f04103f0b2fa2d4b1a68013a1a60fe
:105914001b68002b4dd12b4b1b680bb9002449e0ad
:105924000024294e294fdff8b880336803b3f368a5
:10593400dc6804f1180003f0e3f9251d284603f0a0
:10594400dff9e06a3a680123834013433b6000ebcc
:105954008000294608eb800003f024fc1c4b1b68e4
